:020000040800F2
:10000000B0070020CD010008BB1500081515000839
:10001000B9150008D3020008311A000800000000DA
:10002000000000000000000000000000BF150008F4
:100030001F03000800000000BD150008C1150008DE
:10004000E7010008E7010008E7010008E7010008F0
:10005000E7010008E7010008E7010008E7010008E0
:10006000E7010008E7010008E7010008E7010008D0
:10007000E7010008E7010008D5020008E9020008CE
:10008000E7010008E7010008E7010008E7010008B0
:10009000E7010008E7010008E7010008E7010008A0
:1000A000E7010008E7010008E7010008E701000890
:1000B000E7010008E7010008E7010008E701000880
:1000C000E7010008E7010008E7010008E701000870
:1000D000E7010008251A0008E7010008E701000809
:1000E000E7010008E7010008E7010008E701000850
:1000F000E7010008E7010008E7010008E701000840
:10010000E7010008E7010008E7010008E70100082F
:10011000E7010008E7010008E7010008E70100081F
:10012000E7010008E7010008E7010008E70100080F
:1001300000F002F800F03AF80AA090E8000C8244BF
:100140008344AAF10107DA4501D100F02FF8AFF29C
:10015000090EBAE80F0013F0010F18BFFB1A43F0A5
:10016000010318475C1900007C190000103A24BFF5
:1001700078C878C1FAD8520724BF30C830C144BF0C
:1001800004680C607047000000230024002500264E
:10019000103A28BF78C1FBD8520728BF30C148BFEA
:1001A0000B6070471FB51FBD10B510BD00F058F8AB
:1001B0001146FFF7F7FF01F04DFC00F076F803B4AD
:1001C000FFF7F2FF03BC00F07DF80000094880470C
:1001D00009480047FEE7FEE7FEE7FEE7FEE7FEE729
:1001E000FEE7FEE7FEE7FEE704480549054A064B41
:1001F000704700002316000831010008B0010020FC
:10020000B0070020B0030020B00300204FF0000230
:1002100000B5134694469646203922BFA0E80C50FC
:10022000A0E80C50B1F12001BFF4F7AF090728BFD7
:10023000A0E80C5048BF0CC05DF804EB890028BF53
:1002400040F8042B08BF704748BF20F8022B11F07C
:10025000804F18BF00F8012B7047704770477047F8
:10026000754600F02BF8AE4605006946534620F06F
:100270000700854618B020B5FFF7B6FFBDE820405F
:100280004FF000064FF000074FF000084FF0000B52
:1002900021F00701AC46ACE8C009ACE8C009ACE805
:1002A000C009ACE8C0098D46704710B50446AFF3ED
:1002B00000802046BDE81040FFF781BF004870472E
:1002C0005001002001491820ABBEFEE726000200C5
:1002D0007047FEE710B5034800F0E0F8BDE81040B5
:1002E00001F0A0B90C010020014800F0D7B80000CF
:1002F000C800002030B590F840500124AC40C56BD8
:100300006C60046863604368102B036803D09960D5
:100310000068C26030BD9A600068C16030BD70473F
:1003200072B6FEE710B590F821100022022905D020
:100330000421816380F82020012010BD01680B6832
:1003400023F00E030B6001680B6823F001030B60C0
:1003500090F84030C46B012101FA03F3636080F828
:10036000211080F82020104610BD00002DE9F05F1C
:1003700090F821100024022903D004218163012474
:1003800085E001680A6822F00E020A6001680A68C6
:1003900022F001020A603F4E3E4FB215DFF8F4C072
:1003A000DFF8F090DFF8ECA0DFF8E8B0DFF8E4E089
:1003B0000168783F13011502ACF1640CA9F15009F2
:1003C000AAF13C0AABF1280BAEF1140E4FF48018E1
:1003D000B14227D9B9420ED0614512D049451DD04E
:1003E000514518D0594518D0714501D1424615E004
:1003F000294EB14201D1012210E0274E1436B142FC
:1004000001D110220AE0244E2836B14206D0224AF9
:100410003C32914201D11A4600E02A461E49091F8A
:100420000A602BE0B94213D0614517D0494522D06C
:1004300051451DD059451DD0714501D142461AE0A4
:10044000B14202D14FF0807215E0134EB14201D19A
:10045000012210E0104E1436B14201D110220AE000
:100460000D4E2836B14206D00B4A3C32914201D1A2
:100470001A4600E02A46074980394A60012180F87F
:100480002110002180F82010416B01B188472046DF
:10049000BDE8F09F80000240080402402DE9F05FB3
:1004A000C16B0A6801680B68046C4FF0040808FA15
:1004B00004F8844D844E854FDFF814C2DFF814929F
:1004C000DFF814A2DFF814B2DFF814E218EA020F22
:1004D00065D05FEA437862D50A68920603D40A6859
:1004E00022F004020A60DFF8F0814FF480620168B4
:1004F00008F1140813011402414524D9A9420DD072
:10050000B1420FD0B9421AD0614515D0494515D036
:10051000514501D1120312E0594501D104220EE0E8
:10052000714501D140220AE06D4D1435A94206D033
:100530006B4A2832914201D11A4600E022466749AF
:10054000091F0A6029E0A94213D0B14215D0B9426F
:1005500020D061451BD049451BD0514502D14FF4F5
:10056000800217E0414502D14FF0806212E0594508
:1005700001D104220EE0714501D140220AE0584D1C
:100580001435A94206D0564A2832914201D11A4662
:1005900000E022464B4908394A60C16A71E04FF0D9
:1005A000020808FA04F818EA020F70D05FEA8378AC
:1005B0006DD50A68920606D40A6822F00A020A601B
:1005C000012180F82110DFF810814FF400720168DA
:1005D00008F1140813011402414524D9A9420DD091
:1005E000B1420FD0B9421AD0614515D0494515D056
:1005F000514501D1120312E0594501D102220EE00A
:10060000714501D120220AE0354D1435A94206D0AA
:10061000334A2832914201D11A4600E022462F493E
:10062000091F0A6029E0A94213D0B14215D0B9428E
:1006300020D061451BD049451BD0514502D14FF414
:10064000001217E0414502D14FF0007212E0594507
:1006500001D102220EE0714501D120220AE0204D95
:100660001435A94206D01E4A2832914201D11A46B9
:1006700000E02246134908394A60002180F8201022
:10068000816A00291CD0BDE8F05F0847FFE7082514
:10069000A540154214D01A0712D50A6822F00E029E
:1006A0000A6090F84020C36B012101FA02F25A60FF
:1006B000816380F82110002180F82010016BE0E7B1
:1006C000BDE8F09F080002401C00024030000240DC
:1006D00044000240580002406C00024008040240FE
:1006E0001C04024030B560B11A4B026814219A42D2
:1006F00009D2194B1344B3FBF1F189000164174986
:100700000AE0012030BD134B5B421344B3FBF1F10F
:10071000890001640F490839C163022180F8211062
:10072000136843F6F0718B43F0E901142143D0E9DB
:1007300002452C43214304692143446921438469D0
:10074000214319431160002141630122427701775F
:10075000084630BD08040240F8FFFDBF000002401B
:1007600070B5044690F82000002501280CD0012027
:1007700084F8200094F821600020012E06D084F82F
:1007800020000225284670BD022070BD022684F894
:100790002160A0632068066826F0010606602046F6
:1007A000FFF7A8FDE06A00282068016802D041F048
:1007B0000E0106E021F0040101602068016841F0AB
:1007C0000A0101602068016841F001010160D9E778
:1007D00070B5044600F00AF90546601C02D00448D2
:1007E0000078044400F002F9401BA042FAD370BD27
:1007F0000C0000202DE9F84FDFF8C8910024A9F182
:10080000040B23460F2709F1040AABF1040ED1E0D3
:100810000125A54006EA0502AA4276D1DFF8A8C163
:100820004E68A6EB0C0866452BD00DDC032E34D0A9
:1008300005DC36B3012E19D0022E2FD11BE0112E6C
:1008400016D0122E2AD119E0B8F5881F19D006DC6F
:10085000B8F5803F15D0B8F5801F1FD111E0B8F56D
:10086000001F0ED0B8F5041F18D10AE0CB6815E0C0
:10087000CB681B1D12E0CB6808330FE0CB680C334C
:100880000CE08B682BB1012B4FF0080303D04561BE
:1008900004E0042302E0056100E00023FF2A01D800
:1008A000064601E000F104064FEA840501D9A5F1EE
:1008B0002005D6F8008007FA05FC28EA0C0803FAA0
:1008C00005F548EA0508C6F800804D68ED0070D5CA
:1008D0003E4DAE6946F00106AE61AD6924F00306F7
:1008E00005F0010500953A4D06EB050CDCF80850C3
:1008F000A607360F07FA06F825EA0805DFF8D480C0
:10090000404503D14FF0000825E052E0DFF8C880F1
:10091000404502D14FF001081DE0DFF8C08040459E
:1009200002D14FF0020816E0DFF8B480404502D152
:100930004FF003080FE0DFF8AC80404502D14FF0E4
:10094000040808E0DFF8A080404502D14FF0050818
:1009500001E04FF0060808FA06F848EA0508CCF866
:1009600008804D68D9F80060ED024D4601D5164368
:1009700000E096432E604D68DAF80060AD025546FF
:1009800001D5164300E096432E604D68DBF8006009
:10099000AD035D4601D5164300E096432E604D68D9
:1009A000DEF80060ED03754601D5164300E096437E
:1009B0002E60641C0A681646E2407FF429AFBDE849
:1009C000F88F0000080401400000111000100240E0
:1009D0000000014000080140000C014000100140EF
:1009E0000014014000180140001C014001488068CB
:1009F000704700000C000020024881680278114412
:100A0000816070470C000020074810B5016841F074
:100A100010010160032000F075F80F2000F006F8C7
:100A200000F024F8002010BD0020024070B50D4DEC
:100A300004464FF47A712878B1FBF0F00A4909684E
:100A4000B1FBF0F000F0DCFA48B9102C07D200221C
:100A50002146501E00F036F800206C6070BD012069
:100A600070BD00000C000020180000200C4808B5E4
:100A7000816941F001018161816901F00101009109
:100A8000C16941F08051C161C06900F0805000909F
:100A90000448416821F0E06141F00071416008BD07
:100AA0000010024000000140002809DB00F01F0296
:100AB000012191404009800000F1E020C0F80011C0
:100AC00070470000F0B40E4B1B680C46C3F30223C2
:100AD000C3F10705042D00D90425191D072901D2EA
:100AE000002300E0DB1E012606FA05F1491E214025
:100AF00099409E40761E16403143F0BC00F099BFED
:100B00000CED00E0064900F0070208684FF6FF030D
:100B1000184040EA0220034A104308607047000072
:100B20000CED00E00000FA052DE9F0470F46050046
:100B300061D0434E306800F00700B84209D23068F7
:100B400020F0070038433060306800F00700B842FA
:100B500051D128683B4C810712D5400703D5606806
:100B600040F4E06060602878000703D5606840F4D6
:100B7000605060606068A96820F0F0000843606021
:100B80002878C00728D06868012810D0216802287A
:100B900010D0890700292EDA616821F00301014392
:100BA0006160FFF723FF804641F288390DE021683C
:100BB0008903EFE78901EDE7FFF718FFA0EB0801D4
:100BC000494502D90320BDE8F0876068696800F0F4
:100BD0000C00B0EB810FEFD1306800F00700B84295
:100BE0000BD9306820F0070038433060306800F0DF
:100BF0000700B84201D00120E5E72878400705D575
:100C00006068E96820F4E0600843606028780007C5
:100C100006D56068296920F4605040EAC100606030
:100C200000F038F86168084AC1F30311515CC8400C
:100C30000649086006480068FFF7F8FE0020C2E792
:100C40000020024000100240A61A000818000020F0
:100C5000100000200448054900684968044AC1F3AF
:100C60000221515CC840704718000020001002406B
:100C7000B61A00080448054900684968044AC1F3E7
:100C8000C221515CC840704718000020001002408B
:100C9000B61A00080E4A51680E4801F00C03042BE6
:100CA00011D0082B0FD10C48C1F38343C903C05C9A
:100CB0000AD55168084AC1F34041921E515C054A69
:100CC0005043B0FBF1F070470449484370470000BF
:100CD0000010024000127A00961A000800093D0038
:100CE0002DE9F84F040070D02078C04DC00749D0DE
:100CF0006868C0F38100012807D06868C0F38100EC
:100D0000022809D16868C00306D52868800339D550
:100D100060680028E7D035E06068B0F5803F0BD010
:100D200010B1B0F5A02F11D0286820F480302860D1
:100D3000286820F4802002E0286840F48030286091
:100D4000606890B1FFF752FE06460AE0286840F45A
:100D500080202860F0E700BFFFF748FE801B642872
:100D600073D828688003F7D50CE0FFF73FFE0646EE
:100D700005E000BFFFF73AFE801B6428F0D8286822
:100D80008003F7D420789A4E80074FF001094FF086
:100D9000000839D5686810F00C0F07D06868C0F3F8
:100DA0008100022809D16868C00306D4286880073A
:100DB00014D52069012808D110E02069B0B1C6F827
:100DC0000090FFF713FE074605E00AE1FFF70EFE6D
:100DD000C01B0228C4D828688007F7D52868616935
:100DE00020F0F80040EAC10028600DE0C6F800805D
:100DF000FFF7FCFD074604E0FFF7F8FDC01B0228E3
:100E000023D828688007F7D4207800072CD57948A4
:100E1000A169D9B1C0F80090FFF7E8FD074604E0EA
:100E2000FFF7E4FDC01B02280FD8686A8007F7D5DA
:100E300071484FF4FA510068B0FBF1F0009000BF28
:100E40000098411E0091FAD20EE080E0C0F80080C8
:100E5000FFF7CCFD074604E0FFF7C8FDC01B0228E2
:100E600075D8686A8007F7D42078400760D5E869AC
:100E70000027C00008D4E86940F08050E861E869C4
:100E8000012700F0805000905C480168C90513D428
:100E90000168834641F480710160FFF7A7FD824637
:100EA00006E000BFFFF7A2FDA0EB0A0064284ED8C1
:100EB000DBF80000C005F5D5E06801280AD008B1CC
:100EC000052813D0286A20F001002862286A20F043
:100ED000040002E0286A40F001002862E06841F264
:100EE000883B98B1FFF782FD82460BE0286A40F00C
:100EF00004002862EEE700BFFFF778FDA0EB0A01CF
:100F000059455AD8286A8007F6D50CE0FFF76EFDE0
:100F1000824605E0FFF76AFDA0EB0A0159454CD86F
:100F2000286A8007F6D41FB1E86920F08050E86194
:100F3000E06988B36968C1F38101022944D00228BD
:100F4000C6F8608004D0FFF751FD044638E034E075
:100F5000FFF74CFD074604E0FFF748FDC01B0228E1
:100F60002BD828688001F7D4206AB0F5803F05D1DE
:100F70006868A16820F4003008436860D4E908017B
:100F80000843696821F4741108436860C6F86090EA
:100F9000FFF72CFD044606E025E000BFFFF726FD25
:100FA000001B022809D828688001F7D51BE000BF84
:100FB000FFF71CFD001B022802D90320BDE8F88FB3
:100FC00028688001F4D40EE00128F7D06868226A0E
:100FD00000F48031914204D1616A00F470108842BB
:100FE00001D00120EAE70020E8E7000000100240FD
:100FF000000042428004424218000020007000407D
:1010000010B5401EB0F1807F01D3012010BD4FF01C
:10101000E02460610F21601700F00BFD0020A0614B
:1010200007202061002010BD704710B504460068FD
:10103000406994F84110C0F3C010212911D180B14A
:101040002068143050E8001F21F0800140E80012B1
:10105000002AF5D1A06B08B1FFF764F9204600F033
:10106000CDFB2068406994F84210C0F3801022291B
:1010700011D180B12068143050E8001F21F04001E8
:1010800040E80012002AF5D1E06B08B1FFF74AF9F9
:10109000204600F08CFB002010BD7047F8B50168B9
:1010A00004460868CA684B6910F00F0F4FF000053E
:1010B00059D003F0010602F49077374365D0C10799
:1010C00005D0D10503D5616C41F001016164410790
:1010D00005D5D90703D0616C41F002016164810735
:1010E00005D5D90703D0616C41F0040161640107A3
:1010F00007D502F02001314303D0616C41F00801B3
:101100006164616C00293AD0800604D5900602D54E
:10111000204600F081FB20684069616CC0F38010BC
:10112000090700D460B3204600F041FB2068406905
:10113000400621D52068143050E8001F21F04001FE
:1011400040E80012002AF5D1E06BA8B16D49416377
:10115000E06BFFF70BF9002811D0E06B416B01B099
:10116000BDE8F040084783060FD593060DD520460D
:10117000BDE8F84000F050BB2046FFF78EFFF8BDF9
:101180002046FFF78AFF6564F8BD266B2023012EF9
:101190007CD1C6067AD5D60678D50868486800900E
:1011A00048694FF00206400640D5E16B0868406888
:1011B0000004000CE8D0A28D8242E5D9E085886960
:1011C00020282DD020680C3050E8001F21F48071B9
:1011D00040E80012002AF5D12068143050E8001FC2
:1011E00021F0010140E80012002AF5D120681430F6
:1011F00050E8001F21F0400140E80012002AF5D11C
:1012000084F84230256320680C3050E8001F21F03C
:10121000100140E80012002AF5D1E06BFFF782F8D8
:101220006663A08DE18D401A81B22AE0A08DE18D28
:10123000401A81B2E08D0028A6D00029A4D02268EF
:101240000C3252E8000F20F4907042E80007002FA3
:10125000F5D12068143050E8002F22F0010240E858
:101260000027002FF5D184F84230256320680C3028
:1012700050E8002F22F0100240E80023002BF5D1A7
:1012800066632046FFF7D0FEF8BDFFE705062BD5C5
:10129000150629D594F841002128F5D1A068B0F5AC
:1012A000805F01D12069B0B1206A411C21622168B0
:1012B00000784860E08C401E0004000CE084E3D11C
:1012C0002068C16821F08001C1602068C16841F0D8
:1012D0004001C160D8E7206A0088C0F30800486078
:1012E000206A801C2062E5E74006CDD55006CBD5AC
:1012F000CA68204622F04002CA6084F8413000F0FB
:1013000007F9C1E76516000870B5040004D094F829
:101310004100002510B106E0012070BD84F8405066
:10132000204600F023F8242084F841002068C1689A
:1013300021F40051C160204600F0D0FA2068016914
:1013400021F4904101612068416921F02A01416145
:101350002068C16841F40051C1606564202084F8B0
:10136000410084F842006563002070BDF0B585B08F
:1013700000240646009401940294039400682D49C9
:10138000884254D12C48816941F48041816181694E
:1013900001F480410491816941F004018161806917
:1013A000264D00F0040004904FF4007000900220DD
:1013B00001900320039069462846FFF71BFA281581
:1013C000CDE90004694628460294FFF713FA1D4D43
:1013D0001B488027C5E90004C5E902472C616C6100
:1013E000AC612846EC61FFF77DF908B1FEF798FF84
:1013F000F5636E62134D12484435143801C5102050
:1014000091C5104845F8104944306C61AC61EC61FD
:10141000FFF768F908B1FEF783FFB56300221146B4
:1014200025206E62FFF74EFB2520FFF73DFB05B040
:10143000F0BD0000003801400010024000080140EB
:1014400058000240C800002090F84230202B01D004
:101450000220704721B11AB10023036300F09ABA49
:1014600001207047084910B588420BD1092207496D
:10147000054800F011F8BDE8104064220449024814
:10148000FFF7E2BF10BD0000800000200000002038
:101490001C0000207047000070B5044690F8410021
:1014A000202801D0022070BD49B342B32162A2843A
:1014B000E28400206064212384F84130A56B114B45
:1014C000AB62A56B104BEB62A56B104B2B63A36B50
:1014D0005863256813462A1DA06BFFF741F9216860
:1014E0006FF0400008602068143050E8001F41F0A1
:1014F000800140E80012002AF5D1002070BD0120D3
:1015000070BD000063170008A517000875160008D5
:1015100070477047FEE700000D4808B5416941F08B
:10152000010141614069002200F001000090114674
:101530000E20FFF7C7FA0E20FFF7B6FA0022114679
:101540000F20FFF7BFFABDE808400F20FFF7ACBA45
:1015500000100240094808B5816941F0200181610D
:10156000816901F020010091816941F004018161EC
:10157000806900F00400009008BD000000100240E7
:101580000C4810B50A4901604FF4E1314160002177
:1015900081600C22C160C0E904128161C161FFF762
:1015A000B3FE002803D0BDE81040FEF7B9BE10BD61
:1015B0000038014080000020FEE7FEE770477047DA
:1015C000FFF71ABA30B58FB028216846FEF71EFE25
:1015D00014210AA8FEF71AFE01210804CDE9001023
:1015E0000024029402250491CDE907504FF4E01045
:1015F00009906846FFF774FB08B172B6FEE70F204A
:10160000CDE90A054FF48060CDE90C4002210AA81B
:101610000E94FFF789FA002801D072B6FEE70FB0EA
:1016200030BD70470C4810B500680168C943C90651
:1016300011D46FF0100101600748FFF7F6FC07486E
:1016400000684068BDE81040C0F16400C2B20449BF
:101650000148FFF721BF10BD80000020C800002016
:101660001C00002010B5406A0021C185C184FFF72D
:1016700014FD10BD70B5446A2068406994F84110AB
:10168000C0F3C0100025212904D118B1E5842046FB
:1016900000F0B4F82068406994F84210C0F380105C
:1016A000222904D118B1E585204600F080F8606C4D
:1016B00040F0100060642046FFF7EFFC70BD10B5ED
:1016C0000146406A096809684FF0000289062ED475
:1016D000C28501680C3151E8003F23F4807341E872
:1016E0000034002CF5D10168143151E8003F23F09B
:1016F000010341E80034002CF5D10168143151E8B0
:10170000003F23F0400341E80034002CF5D12021B4
:1017100080F84210016B012909D101680C3151E8B0
:10172000003F23F0100341E80034002CF5D1426360
:10173000016B012902D0FFF795FE10BD818DFFF7E7
:1017400073FC10BD10B5406A01214163016B012992
:1017500002D0FFF79FFE10BD818D4908FFF764FCA2
:1017600010BD10B50146406A09680968890616D49B
:101770000021C1840168143151E8002F22F0800259
:1017800041E80023002BF5D101680C3151E8002F0E
:1017900042F0400241E80023002BF5D110BDFFF7D5
:1017A000B7FE10BD10B5406AFFF7B3FE10BD01686B
:1017B0000C3151E8002F22F4907241E80023002BF5
:1017C000F5D10168143151E8002F22F0010241E8FF
:1017D0000023002BF5D1016B012909D101680C31DF
:1017E00051E8002F22F0100241E80023002BF5D130
:1017F000202180F8421000210163704701680C31FC
:1018000051E8002F22F0C00241E80023002BF5D15F
:10181000202180F84110704708B590F84210222925
:1018200001D0022008BD82684FF480539A4201D152
:10183000016921B1816A9A421BD04AB10AE002686B
:10184000816A5268C2F308020A80816A891C08E032
:10185000026972B10268526802F07F020A70816AFE
:10186000491C8162C18D491E0904090CC18503D040
:101870001BE002685268F1E70168CA6822F02002A2
:10188000CA600168CA6822F48072CA6001684A6945
:1018900022F001024A61202180F8421000214163B8
:1018A000026B012A03D0FFF7DDFD002008BD0163B4
:1018B00001680C3151E8002F22F0100241E80023AA
:1018C000002BF5D101680A68D20602D50A6849687A
:1018D0000091818DFFF7A8FBE7E7000070B5044693
:1018E00000680169E26821F44051114301612169F6
:1018F000A0680843616908432168CA6841F20C6323
:101900009A430243CA6020684169A26921F4407188
:10191000114341611E492068884202D1FFF7AAF9AC
:1019200001E0FFF797F900EBC00101EB00126068DE
:1019300064218000B2FBF0F3B3FBF1F36FF0180603
:101940007343B2FBF0F5B2FBF0F605EB83053223EF
:1019500003EB0515B5FBF1F5B6FBF1F605F0F00567
:1019600005EB0615B2FBF0F6B2FBF0F0B0FBF1F0C0
:101970006FF01802504306EB800003EB0010B0FB41
:10198000F1F0216800F00F002844886070BD00006D
:101990000038014038B58162044682850020134634
:1019A0006064222284F84220E56B1B4AAA62E56B40
:1019B0001A4AEA62E56B1A4A2A63E26B50630A46E6
:1019C0002168E06B091DFEF7CBFE206801684068C6
:1019D0000090206948B120680C3050E8001F41F4A5
:1019E000807140E80012002AF5D12068143050E8D8
:1019F000001F41F0010140E80012002AF5D12068E3
:101A0000143050E8001F41F0400140E80012002A65
:101A1000F5D1002038BD0000BF16000845170008AA
:101A2000751600080148FFF739BB00008000002050
:101A3000FEE70907090E002804DB00F1E02080F82A
:101A40000014704700F00F0000F1E02080F8141D32
:101A500070470000FEF7D8FFFFF7B4FDFFF77AFDEF
:101A6000FFF75AFDFFF78CFD08480068C16841F098
:101A70001001C160642206490448FFF7E5FC4FF4F9
:101A80007A742046FEF7A4FEFBE7000080000020E9
:101A90001C000020010202030405060708090A0BC6
:101AA0000C0D0E0F101000000000000000000102DD
:101AB00003040607080900000000010203040000F7
:101AC000E01A0008000000201C0000006C01000863
:101AD000FC1A00081C000020940700008801000880
:101AE0006920676F74206974000000000100000025
:0C1AF000100000000000000000127A004E
:0400000508000131BD
:00000001FF
