:020000040800F2
:10000000B004002045010008FB1500080511000898
:10001000F9150008DD010008DF17000800000000E6
:10002000000000000000000000000000FF150008B4
:10003000DF01000800000000FD150008011600089F
:100040005F0100085F0100085F0100085F01000810
:100050005F0100085F0100085F0100085F01000800
:100060005F0100085F0100085F0100085F010008F0
:100070005F0100085F0100085F0100085F010008E0
:100080005F0100085F0100085F0100085F010008D0
:100090005F0100085F0100085F0100085F010008C0
:1000A0005F0100085F0100085F0100085F010008B0
:1000B0005F0100085F0100085F0100085F010008A0
:1000C0005F0100085F0100085F0100085F01000890
:1000D0005F0100085F0100085F0100085F01000880
:1000E0005F0100085F0100085F0100085F01000870
:1000F0005F0100085F0100085F0100085F01000860
:100100005F0100085F0100085F0100085F0100084F
:100110005F0100085F0100085F0100085F0100083F
:100120005F0100085F0100085F0100085F0100082F
:10013000DFF80CD000F040F800480047AD19000887
:10014000B00400200648804706480047FEE7FEE767
:10015000FEE7FEE7FEE7FEE7FEE7FEE7FEE7FEE777
:100160006316000831010008D2B201E000F8012B4B
:10017000491EFBD270470022F6E710B513460A4627
:1001800004461946FFF7F0FF204610BD30B50B4678
:10019000014600202022012409E021FA02F59D42B7
:1001A00005D303FA02F5491B04FA02F52844151E8B
:1001B000A2F10102F1DC30BD064C074D06E0E0681B
:1001C00040F0010394E8070098471034AC42F6D39E
:1001D000FFF7B2FF741A0008941A0008FEE7704790
:1001E00072B6FEE770B5044600F00AF90546601CD9
:1001F00002D004480078044400F002F9401BA042F9
:10020000FAD370BD000000202DE9F84FDFF8C89147
:100210000024A9F1040B23460F2709F1040AABF1CE
:10022000040ED1E00125A54006EA0502AA4276D1D6
:10023000DFF8A8C14E68A6EB0C0866452BD00DDC94
:10024000032E34D005DC36B3012E19D0022E2FD167
:100250001BE0112E16D0122E2AD119E0B8F5881FF6
:1002600019D006DCB8F5803F15D0B8F5801F1FD136
:1002700011E0B8F5001F0ED0B8F5041F18D10AE040
:10028000CB6815E0CB681B1D12E0CB6808330FE08C
:10029000CB680C330CE08B682BB1012B4FF00803BB
:1002A00003D0456104E0042302E0056100E000237F
:1002B000FF2A01D8064601E000F104064FEA840552
:1002C00001D9A5F12005D6F8008007FA05FC28EA37
:1002D0000C0803FA05F548EA0508C6F800804D68E1
:1002E000ED0070D53E4DAE6946F00106AE61AD69D8
:1002F00024F0030605F0010500953A4D06EB050CC8
:10030000DCF80850A607360F07FA06F825EA0805B4
:10031000DFF8D480404503D14FF0000825E052E0DB
:10032000DFF8C880404502D14FF001081DE0DFF83A
:10033000C080404502D14FF0020816E0DFF8B480DB
:10034000404502D14FF003080FE0DFF8AC80404594
:1003500002D14FF0040808E0DFF8A080404502D148
:100360004FF0050801E04FF0060808FA06F848EAE1
:100370000508CCF808804D68D9F80060ED024D46BC
:1003800001D5164300E096432E604D68DAF8006010
:10039000AD02554601D5164300E096432E604D68E8
:1003A000DBF80060AD035D4601D5164300E09643DF
:1003B0002E604D68DEF80060ED03754601D51643EA
:1003C00000E096432E60641C0A681646E2407FF403
:1003D00029AFBDE8F88F00000804014000001110AB
:1003E000001002400000014000080140000C0140E4
:1003F000001001400014014000180140001C0140A1
:1004000001488068704700000000002070B50400BB
:1004100025D094F83D00002520B984F83C502046B2
:1004200000F07EFA242084F83D002068016821F065
:10043000010101602068016841F400410160206809
:10044000016821F40041016000F0B8FB4D4A616889
:10045000914201D84C4900E04C49884201D2012028
:1004600070BD4B492368B0FBF1F15E6826F03F0692
:100470000E435E606368934206D94FF49673594306
:100480004FF47A73B1FBF3F12368491C1E6A26F01E
:100490003F06314319626168914210D84900401EFD
:1004A000B0FBF1F2521CC2F30B02042A01D2042069
:1004B00022E0B0FBF1F0401CC0F30B001CE0A2688E
:1004C000F2B301EBC10303EB0116431EB3FBF6F3DA
:1004D0005B1C43F480431B0549D092B301EBC1027E
:1004E00002EB0111401EB0FBF1F0401CC0F30B0009
:1004F00040F4804040F400402168CA694CF6FF7324
:100500009A431043C861D4E9071001432068026888
:1005100022F0C00211430160D4E9030101432068C5
:10052000826848F2FF339A4311438160D4E90501A0
:1005300008432168CA6822F0FF021043C86001E046
:100540000EE016E02068016841F0010101602564B9
:10055000202084F83D00256384F83E50002070BDC3
:1005600001EB4106431EB3FBF6F35B1CB3E701202E
:10057000C2E701EB4101401EB0FBF1F0401CC0F3AB
:100580000B00B7E7A086010080841E0000093D0033
:1005900040420F002DE9FF4F83B00025DDE91079BF
:1005A0009A4693460446DDF848800095FFF728FFF9
:1005B000064694F83D0020287CD119230122884961
:1005C0002046009600F0B4FE0028F5D194F83C00D7
:1005D00001286FD0012084F83C0020680168C90719
:1005E00003D1016841F0010101602068016821F434
:1005F00000610160222084F83D00402084F83E0024
:1006000025646762A4F82A90608D20857548E062B1
:10061000CDE9008653465A462046049900F08AFDEB
:1006200000287CD1208DDFF8C091202768B10128F7
:1006300014D00228206801681ED041F48061016056
:100640002068416980690090BCE020684169816947
:100650000091016841F400710160B3E02068016815
:1006600021F48061016072B620684169816900915E
:10067000016841F400710AE041F40061016072B662
:100680002068416981690091016821F480610160FD
:1006900062B697E0032865D801280CD002284346AB
:1006A0004FF000024946204600960BD000F040FE75
:1006B000A8BB0CE091E032464146204600F0DEFE49
:1006C00068BB72E000F034FE48BB72B633E02068CD
:1006D000016821F48061016072B620680069616A76
:1006E0000870606A401C6062208D401E2085608D0D
:1006F000401E60853D4846F2A8110068B0FBF1F04D
:10070000C0EBC00000EB80000090401E009007D0BE
:1007100020684069C04340070DD50098F5E727E001
:1007200044F8305F6773A573206940F020002061B2
:1007300062B625731CE02068016841F40071016015
:1007400020680069616A0870606A401C6062218DDF
:10075000491E2185618D491E618562B6216809693E
:10076000017026E032464146204600F087FE18B16F
:10077000012007B0BDE8F08F20680069616A087049
:10078000606A401C6062208D401E81B22185608DB0
:10079000401E608520684269D243520712D4032963
:1007A00003D1016821F48061016020680069616AF9
:1007B0000870606A401C6062208D401E2085608D3C
:1007C000401E6085208D00287FF464AF84F83D7062
:1007D00084F83E5084F83C50CBE70220C9E7000083
:1007E000020010000000FFFF040001000C000020C8
:1007F0002DE9FF4F83B09A46DDE9119793460446F1
:10080000DDF84080FFF7FCFD054694F83D00202808
:100810007FD11923012240492046009500F088FD30
:10082000002876D194F83C00012872D0012084F889
:100830003C0020680168C90703D1016841F001014B
:1008400001602068016821F400610160212084F8C2
:100850003D00402084F83E0000262664C4F8248031
:10086000A4F82A90608D20852C48E062CDE90075BF
:1008700053465A462046049900F0DAFC70B930E03D
:100880002A463946204600F031FE58B1206C042833
:1008900004D12068016841F400710160012007B0B3
:1008A000BDE8F08F606A216800780861606A401CCA
:1008B0006062218D491E89B22185628D521E62853A
:1008C00022685369DB435B070BD469B10078106180
:1008D000606A401C6062208D401E2085608D401E35
:1008E0006085208D0028CBD12A463946204600F06D
:1008F000F3FC0028CAD154F83D0B016841F40071A3
:100900000160202004F81E09E67766770020C6E71C
:10091000FFE70220C3E70000020010000000FFFF15
:1009200010B586B0002100910191029103910068F9
:100930000F4988421AD10F4CA06940F00800A0610D
:10094000A069694600F008000490C02000901220C1
:100950000190032003900848FFF756FCE06940F43B
:100960000010E061E06900F40010049006B010BDD2
:100970000054004000100240000C01400248816811
:10098000027811448160704700000020074810B5CC
:10099000016841F010010160032000F067F80F20AA
:1009A00000F006F800F024F8002010BD00200240FE
:1009B00070B50D4D04464FF47A712878B1FBF0F014
:1009C0000A490968B1FBF0F000F0CEFA48B9102CE2
:1009D00007D200222146501E00F028F800206C604B
:1009E00070BD012070BD0000000000200C00002040
:1009F0000C4808B5816941F001018161816901F00C
:100A000001010091C16941F08051C161C06900F0EC
:100A1000805000900448416821F0E06141F000718D
:100A2000416008BD0010024000000140F0B40E4BD0
:100A30001B680C46C3F30223C3F10705042D00D93C
:100A40000425191D072901D2002300E0DB1E012621
:100A500006FA05F1491E214099409E40761E164037
:100A60003143F0BC00F0CCBE0CED00E0064900F0D4
:100A7000070208684FF6FF03184040EA0220034AC5
:100A800010430860704700000CED00E00000FA051C
:100A90002DE9F0470F46050061D0434E306800F065
:100AA0000700B84209D2306820F0070038433060B0
:100AB000306800F00700B84251D128683B4C8107EC
:100AC00012D5400703D5606840F4E0606060287884
:100AD000000703D5606840F4605060606068A968F2
:100AE00020F0F000084360602878C00728D06868CC
:100AF000012810D02168022810D0890700292EDA99
:100B0000616821F0030101436160FFF779FC8046D1
:100B100041F288390DE021688903EFE78901EDE7AB
:100B2000FFF76EFCA0EB0801494502D90320BDE8A0
:100B3000F0876068696800F00C00B0EB810FEFD1BE
:100B4000306800F00700B8420BD9306820F0070089
:100B500038433060306800F00700B84201D001200F
:100B6000E5E72878400705D56068E96820F4E0608B
:100B7000084360602878000706D56068296920F47A
:100B8000605040EAC100606000F038F86168084ACF
:100B9000C1F30311515CC84006490860064800686B
:100BA000FFF706FF0020C2E70020024000100240CD
:100BB0005A1A00080C0000200400002004480549CF
:100BC00000684968044AC1F30221515CC84070477B
:100BD0000C000020001002406A1A00080448054971
:100BE00000684968044AC1F3C221515CC84070479B
:100BF0000C000020001002406A1A00080E4A5168DA
:100C00000E4801F00C03042B11D0082B0FD10C4817
:100C1000C1F38343C903C05C0AD55168084AC1F3D4
:100C20004041921E515C054A5043B0FBF1F07047C1
:100C300004494843704700000010024000127A0047
:100C40004A1A000800093D002DE9F84F040070D051
:100C50002078C04DC00749D06868C0F381000128E2
:100C600007D06868C0F38100022809D16868C00312
:100C700006D52868800339D560680028E7D035E0BC
:100C80006068B0F5803F0BD010B1B0F5A02F11D047
:100C9000286820F480302860286820F4802002E052
:100CA000286840F480302860606890B1FFF7A8FBA6
:100CB00006460AE0286840F480202860F0E700BF7C
:100CC000FFF79EFB801B642873D828688003F7D544
:100CD0000CE0FFF795FB064605E000BFFFF790FB31
:100CE000801B6428F0D828688003F7D420789A4EB7
:100CF00080074FF001094FF0000839D5686810F0FF
:100D00000C0F07D06868C0F38100022809D1686819
:100D1000C00306D42868800714D52069012808D1AB
:100D200010E02069B0B1C6F80090FFF769FB0746F4
:100D300005E00AE1FFF764FBC01B0228C4D828685D
:100D40008007F7D52868616920F0F80040EAC10003
:100D500028600DE0C6F80080FFF752FB074604E06C
:100D6000FFF74EFBC01B022823D828688007F7D462
:100D7000207800072CD57948A169D9B1C0F8009036
:100D8000FFF73EFB074604E0FFF73AFBC01B0228D3
:100D90000FD8686A8007F7D571484FF4FA51006898
:100DA000B0FBF1F0009000BF0098411E0091FAD214
:100DB0000EE080E0C0F80080FFF722FB074604E069
:100DC000FFF71EFBC01B022875D8686A8007F7D49E
:100DD0002078400760D5E8690027C00008D4E8699A
:100DE00040F08050E861E869012700F080500090F1
:100DF0005C480168C90513D40168834641F48071D9
:100E00000160FFF7FDFA824606E000BFFFF7F8FA3F
:100E1000A0EB0A0064284ED8DBF80000C005F5D529
:100E2000E06801280AD008B1052813D0286A20F00C
:100E300001002862286A20F0040002E0286A40F0DD
:100E400001002862E06841F2883B98B1FFF7D8FAC8
:100E500082460BE0286A40F004002862EEE700BFFB
:100E6000FFF7CEFAA0EB0A0159455AD8286A800745
:100E7000F6D50CE0FFF7C4FA824605E0FFF7C0FAAA
:100E8000A0EB0A0159454CD8286A8007F6D41FB157
:100E9000E86920F08050E861E06988B36968C1F3CF
:100EA0008101022944D00228C6F8608004D0FFF7EF
:100EB000A7FA044638E034E0FFF7A2FA074604E058
:100EC000FFF79EFAC01B02282BD828688001F7D4B0
:100ED000206AB0F5803F05D16868A16820F4003031
:100EE00008436860D4E908010843696821F4741173
:100EF00008436860C6F86090FFF782FA044606E08F
:100F000025E000BFFFF77CFA001B022809D82868FB
:100F10008001F7D51BE000BFFFF772FA001B022823
:100F200002D90320BDE8F88F28688001F4D40EE0D0
:100F30000128F7D06868226A00F48031914204D118
:100F4000616A00F47010884201D00120EAE70020B5
:100F5000E8E70000001002400000424280044242E4
:100F60000C0000200070004010B5401EB0F1807FE2
:100F700001D3012010BD4FF0E02460610F21601704
:100F800000F03EFC0020A06107202061002010BD81
:100F900070B5040004D094F84100002510B106E0BB
:100FA000012070BD84F84050204600F023F8242032
:100FB00084F841002068C16821F40051C1602046D6
:100FC00000F078FB2068016921F4904101612068FC
:100FD000416921F02A0141612068C16841F4005152
:100FE000C1606564202084F8410084F84200656394
:100FF000002070BD30B585B00024009401940294A7
:10100000039400681449884224D11448816941F44A
:1010100080418161816901F480410491816941F0DD
:101020000401816180690E4D00F0040004904FF4CA
:10103000007000900220019003200390694628462A
:10104000FFF7E2F82815CDE9000469462846029426
:10105000FFF7DAF805B030BD00380140001002405B
:10106000000801402DE9F843044690F841009846F5
:1010700016460D46202802D00220BDE8F88385B12F
:101080007EB100206064212084F84100FFF7B8F9A8
:10109000A6848146E684A0682027B0F5805F02D050
:1010A00003E00120E9E7206910B12E4600250EE09B
:1010B00000260CE08021204600F058FBA8B9C6B1FC
:1010C00016F8010B21684860E08C401EE084E08C3B
:1010D0004B464FF00002CDF800800028EAD14FF0D7
:1010E0004001204600F042FB40B184F841700320EB
:1010F000C3E735F8020BC0F30800E3E784F841705A
:101100000020BAE7FEE701684A69D24352050FD4CE
:101110006FF480624A61002140F8301F2022427340
:101120008173026942F00402026101730120704779
:10113000002070472DE9F84F0446006889460B9D52
:1011400001689846174641F4806101602068016893
:1011500041F48071016000954FF0011B0022594657
:1011600020460A9B00F0E4F84FF4007A40B1206872
:101170000068C00501D5C4F840A00320BDE8F88F81
:10118000216809F0FE0008612B46284920460A9A8A
:1011900000F016F9F0BB20684169806900902A468A
:1011A00020460A9900F0A2F940B1206C04283AD1F7
:1011B0002068016841F40071016034E0FEB2B8F1CA
:1011C000010F09D02168380A08612A4620460A9989
:1011D00000F08CF90028E8D1206806612A462046F4
:1011E0000A9900F083F90028DFD12068016841F4F2
:1011F0008071016000950022594620460A9B00F04C
:1012000097F80028B3D1216809F0FF0040F00100F1
:10121000086100E007E02B46044920460A9A00F0E6
:10122000CFF80028AAD00120A8E7000002000100A2
:101230002DE9F843044600680D46DDE9089701688A
:101240009846164641F4807101604B4600224FF0EB
:1012500001112046009700F06BF848B12068006843
:10126000C00502D54FF4007020640320BDE8F88368
:10127000216805F0FE0008613B464A4615492046B4
:1012800000F09EF888B920684169806900903A466C
:101290004946204600F02AF948B1206C042804D1C0
:1012A0002068016841F4007101600120DEE7F5B2B9
:1012B000B8F1010F09D02168300A08613A46494661
:1012C000204600F013F90028E7D1206805610020CE
:1012D000CCE700000200010070B516460D4604463A
:1012E0001EE02046FFF70FFF08B1012070BD681C0B
:1012F00016D0FFF785F8801BA84200D885B9206872
:101300004069C04340070BD5002044F8300F20212E
:101310006173A073216941F0200121612073E4E72A
:1013200020684069C0434007DBD4002070BD000046
:101330002DE9F047984617460D460446C1F3074687
:10134000DDF820902AE000BFB8F1FF3F26D0FFF77C
:1013500057F8A0EB0901414502D8B8F1000F1DD1A3
:101360002068012E16D0806925EA00000004000CD8
:1013700012D00020B84211D1002044F8300F2021B3
:101380006173A073216941F0200121612073012064
:10139000BDE8F0874069E7E70120EBE72068012E10
:1013A0000AD0806925EA00000004000C06D0002065
:1013B000B842C9D00020EBE74069F3E70120F7E726
:1013C0002DE9F047984616460D4604464FF00009B1
:1013D0004FF0200AC1F3074723E020684069C0436B
:1013E000400515D42068016841F40071016021684E
:1013F0006FF480604861C4F8309084F83DA084F8B0
:101400003E90216C41F00401216484F83C9021E07D
:10141000701C06D0FEF7F4FFA0EB0800B04203D822
:1014200016B1012F1FD021E02068012F15D080694F
:1014300025EA00000004000C18D000BF44F8309FDB
:1014400084F80DA084F80E90216941F020012161FB
:1014500084F80C900120BDE8F087406925EA00007F
:101460000004000CEAD12068406901E0206880692E
:1014700025EA00000004000CAFD1ECE72DE9F041B3
:10148000002590460E460446202728E04069C043C8
:10149000C0060CD454F8301B6FF01000486144F8BB
:1014A00010596777A577206A2062257714E0FEF748
:1014B000A7FFA0EB0800B04200D886B920684069B9
:1014C000C04340060BD544F8305F6773A5732069AD
:1014D00040F02000206125730120BDE8F0812068E4
:1014E0004169C9434906D1D40020F6E770B51646D4
:1014F0000D4604461EE02046FFF705FE08B1012018
:1015000070BD681C16D0FEF77BFF801BA84200D878
:1015100085B920684069C04300060BD5002044F817
:10152000300F20216173A073216941F020012161F6
:101530002073E4E720684069C0430006DBD4002044
:1015400070BD00000D4808B5816941F0200181613E
:10155000816901F020010091816941F004018161FC
:10156000816901F004010091816941F00801816104
:10157000806900F00800009008BD000000100240E3
:101580000D4810B50B4901600C49416000214FF432
:1015900080428160C0E9031241618161C1610162E1
:1015A000FEF734FF002803D0BDE81040FEF718BE58
:1015B00010BD00000054004014000020A08601006F
:1015C0000C4810B50A4901604FF4E1314160002137
:1015D00081600C22C160C0E904128161C161FFF722
:1015E000D7FC002803D0BDE81040FEF7F9BD10BDC0
:1015F0000038014068000020FEE7FEE770477047B2
:10160000FFF7BCB930B58FB028216846FEF7B3FDAF
:1016100014210AA8FEF7AFFD01210804CDE900104E
:101620000024029402250491CDE907504FF4E01004
:1016300009906846FFF708FB08B172B6FEE70F2075
:10164000CDE90A054FF48060CDE90C4002210AA8DB
:101650000E94FFF71DFA002801D072B6FEE70FB016
:1016600030BD704701680C3151E8002F22F49072B0
:1016700041E80023002BF5D10168143151E8002F17
:1016800022F0010241E80023002BF5D1016B012972
:1016900009D101680C3151E8002F22F0100241E815
:1016A0000023002BF5D1202180F842100021016396
:1016B0007047000070B5044600680169E26821F4D3
:1016C0004051114301612169A068084361690843E1
:1016D0002168CA6841F20C639A430243CA602068D9
:1016E0004169A26921F44071114341611E4920689A
:1016F000884202D1FFF772FA01E0FFF75FFA00EBD0
:10170000C00101EB0012606864218000B2FBF0F3BD
:10171000B3FBF1F36FF018067343B2FBF0F5B2FBC5
:10172000F0F605EB8305322303EB0515B5FBF1F568
:10173000B6FBF1F605F0F00505EB0615B2FBF0F689
:10174000B2FBF0F0B0FBF1F06FF01802504306EB83
:10175000800003EB0010B0FBF1F0216800F00F00F7
:101760002844886070BD0000003801402DE9F8432E
:10177000984617460D460446089E24E0701C22D069
:10178000FEF73EFEA0EB0800B0421AD8CEB12068AA
:10179000C168490717D5802D15D0402D13D0016899
:1017A000C94309070FD4016800254068009020460E
:1017B000FFF758FF0820606484F840500120BDE81E
:1017C000F8830320FBE72068006835EA000004D0B6
:1017D0000020B842D2D00020F1E70120F9E7FEE76F
:1017E0000FB4054B10B503A9044A029800F028F87D
:1017F00010BC5DF814FB00009519000810000020D3
:101800000907090E002804DB00F1E02080F800142D
:10181000704700F00F0000F1E02080F8141D7047C1
:1018200002E008C8121F08C1002AFAD170477047A9
:10183000002001E001C1121F002AFBD17047000007
:101840002DE9FF4F89B09B460446002506E0252878
:101850000BD05A460B999047641C6D1C20780028C9
:10186000F5D10DB02846BDE8F08F0027B84601221B
:10187000474900E0074314F8013F203B02FA03F018
:101880000842F7D120782E2819D114F8010F47F01B
:1018900004072A280ED06FF02F022078A0F1300123
:1018A00009290CD808EB880102EB410100EB010883
:1018B000641CF2E70A98641C50F8048B0A902078A4
:1018C0000028CED0642808D0692806D075281ED0FC
:1018D0005A460B9990476D1C58E00A994FF00A0937
:1018E00001C90A91002802DA40422D2102E039059F
:1018F00004D52B218DF82010012103E0F90704D035
:101900002021F7E78A4608AE0DE00021FAE70A99A0
:101910004FF00A0901C90A91F7E74946FEF736FC7C
:10192000303106F8011D0028F7D1ADEB060000F1BB
:101930002009780701D44FF00108C84502DDA8EB63
:10194000090000E000208046002706E008A85A466B
:10195000C05D0B9990476D1C7F1C5745F6DB04E07A
:1019600030205A460B9990476D1CB8F10001A8F140
:101970000108F5DC05E016F8010B5A460B99904773
:101980006D1CB9F10001A9F10109F4DC641C65E7E3
:101990000928010013B54FF6FF730122694602487A
:1019A000FFF760FB00981CBD6800002088B0FEF7C0
:1019B000EDFFFFF727FEFFF7C5FDFFF7E1FDFFF79E
:1019C000FFFD16A10826D1E90001CDE9050105A812
:1019D000CDE90006FF24012300220A2102941148C8
:1019E000FEF706FF10B910A0FFF7FAFE0A20FEF777
:1019F000F9FB03AD0095CDE9016401230022A1218B
:101A00000848FEF7C7FD0CA0FFF7EAFE00240DA072
:101A1000295DFFF7E5FE641CF9E700000001020301
:101A20000405060714000020776569746520737546
:101A300063636573730A0000725F627566203D2000
:101A400000000000256400000102020304050607EF
:101A500008090A0B0C0D0E0F10100000000000000A
:101A6000000001020304060708090000000001024B
:101A700003040000941A0008000000201400000075
:101A800020180008A81A0008140000209C04000078
:101A900030180008010000001000000000000000E5
:081AA00000127A0000000000B2
:0400000508000131BD
:00000001FF
