:020000040800F2
:1000000080060020CD010008450F00089D0E000865
:10001000410F0008D3020008E70F000800000000AD
:10002000000000000000000000000000750F000844
:10003000D702000800000000490F0008770F0008F1
:10004000E7010008E7010008E7010008E7010008F0
:10005000E7010008E7010008E7010008E7010008E0
:10006000E7010008E7010008E7010008E7010008D0
:10007000E7010008E7010008E7010008E7010008C0
:10008000E7010008E7010008E7010008E7010008B0
:10009000E7010008E7010008E7010008E7010008A0
:1000A000E7010008E7010008E7010008E701000890
:1000B000E7010008E7010008E7010008E701000880
:1000C000E7010008E7010008E7010008E701000870
:1000D000E7010008E7010008E7010008E701000860
:1000E000E7010008E7010008E7010008E701000850
:1000F000E7010008E7010008E7010008E701000840
:10010000E7010008E7010008E7010008E70100082F
:10011000E7010008E7010008E7010008E70100081F
:10012000E7010008E7010008E7010008E70100080F
:1001300000F002F800F03AF80AA090E8000C8244BF
:100140008344AAF10107DA4501D100F02FF8AFF29C
:10015000090EBAE80F0013F0010F18BFFB1A43F0A5
:10016000010318475C0F00007C0F0000103A24BF09
:1001700078C878C1FAD8520724BF30C830C144BF0C
:1001800004680C607047000000230024002500264E
:10019000103A28BF78C1FBD8520728BF30C148BFEA
:1001A0000B6070471FB51FBD10B510BD00F058F8AB
:1001B0001146FFF7F7FF00F035FF00F076F803B4C3
:1001C000FFF7F2FF03BC00F07DF80000094880470C
:1001D00009480047FEE7FEE7FEE7FEE7FEE7FEE729
:1001E000FEE7FEE7FEE7FEE704480549054A064B41
:1001F00070470000E50F0008310100088000002072
:100200008006002080020020800200204FF00002C3
:1002100000B5134694469646203922BFA0E80C50FC
:10022000A0E80C50B1F12001BFF4F7AF090728BFD7
:10023000A0E80C5048BF0CC05DF804EB890028BF53
:1002400040F8042B08BF704748BF20F8022B11F07C
:10025000804F18BF00F8012B7047704770477047F8
:10026000754600F02BF8AE4605006946534620F06F
:100270000700854618B020B5FFF7B6FFBDE820405F
:100280004FF000064FF000074FF000084FF0000B52
:1002900021F00701AC46ACE8C009ACE8C009ACE805
:1002A000C009ACE8C0098D46704710B50446AFF3ED
:1002B00000802046BDE81040FFF781BF004870472E
:1002C0001C00002001491820ABBEFEE726000200FA
:1002D000704700BFFEE7704772B600BFFEE7000040
:1002E00070B5044600F0C8F906462546681C10B1F2
:1002F00004480078054400BF00F0BEF9801BA84206
:10030000FAD370BD140000202DE9F84702460023FF
:100310009C467BE14FF0010808FA03F4D1F8008015
:1003200008EA0400A0427DD1DFF8F4A2D1F80480ED
:10033000A8EB0A09D0453AD014DCB8F1030F50D02D
:1003400009DCB8F1000F31D0B8F1010F1CD0B8F1C1
:10035000020F49D120E0B8F1110F18D0B8F1120FF7
:1003600042D11EE0B9F5881F25D006DCB9F5803FE3
:1003700020D0B9F5801F37D11AE0B9F5001F18D089
:10038000B9F5041F30D117E0D1F80CC02DE0D1F839
:100390000C8008F1040C28E0D1F80C8008F1080C5E
:1003A00023E0D1F80C8008F10C0C1EE000BF00BF68
:1003B00000BF00BF00BF00BFD1F80880B8F1000F38
:1003C00002D14FF0040C0BE0D1F80880B8F1010F16
:1003D00003D14FF0080C146102E04FF0080C546197
:1003E00003E04FF0000C00E000BF00BFFF2801D881
:1003F000904601E002F104084646FF2802D84FEA81
:10040000830803E0A3F108084FEA88084746D6F8B6
:1004100000804FF00F0909FA07F928EA09080CFAD9
:1004200007F900E07AE048EA0908C6F80080D1F848
:10043000048008F08058B8F1805F6FD100BFDFF80A
:10044000E481D8F8188048F00108DFF8D891C9F89D
:100450001880C846D8F8188008F00108CDF8008048
:1004600000BF00BF4FEAB9384FEA930958F8295046
:100470004FEA83784FEA18794FF00F0808FA09F825
:1004800025EA0805DFF8A081424502D14FF00008B7
:1004900024E0DFF89881424502D14FF001081DE0C9
:1004A000DFF88C81424502D14FF0020816E0DFF8F8
:1004B0008481424502D14FF003080FE0DFF87881D4
:1004C000424502D14FF0040808E0DFF87081424550
:1004D00002D14FF0050801E04FF006084FEA83799A
:1004E0004FEA197908FA09F848EA0505DFF850815A
:1004F0004FEA930948F82950D1F8048008F480188D
:10050000B8F5801F0BD1DFF83C81D8F8008048EAAD
:100510000008DFF83091C9F800800AE075E0DFF8E4
:100520002481D8F8008028EA0008DFF81891C9F87B
:100530000080D1F8048008F40018B8F5001F0ED12F
:10054000DFF8008108F10408D8F8008048EA0008C4
:10055000DFF8F09009F10409C9F800800DE0DFF838
:10056000E48008F10408D8F8008028EA0008DFF8E1
:10057000D49009F10409C9F80080D1F8048008F486
:100580000038B8F5003F0ED1DFF8B880A8F10408B4
:10059000D8F8008048EA0008DFF8A890A9F104091B
:1005A000C9F800800DE0DFF89C80A8F10408D8F8B5
:1005B000008028EA0008DFF88C90A9F10409C9F846
:1005C0000080D1F8048008F48038B8F5803F0ED15F
:1005D000DFF87080A8F10808D8F8008048EA000821
:1005E000DFF86090A9F10809C9F800800DE0DFF894
:1005F0005480A8F10808D8F8008028EA0008DFF83D
:100600004490A9F10809C9F800805B1CD1F800806A
:1006100028FA03F8B8F1000F7FF47CAEBDE8F88744
:10062000000011100010024000080140000C0140C1
:10063000001001400014014000180140001C01405E
:100640000800014008040140024693680B400BB1CA
:10065000012000E00020704710B5C26821EA0203C3
:1006600002EA010443EA0443036110BD0AB10161D7
:1006700001E00B0403617047014800687047000007
:100680000C00002003480068034909780844014928
:10069000086070470C0000201400002010B50848C6
:1006A000006840F0100006490860032000F098F848
:1006B0000F2000F007F800F02BF8002010BD00001C
:1006C0000020024070B504460E4800784FF47A715D
:1006D000B1FBF0F00C490968B1FBF0F5284600F0D9
:1006E000C3FB08B1012070BD102C07D200222146A7
:1006F000501E00F037F80548046001E00120F2E7E1
:100700000020F0E714000020180000201000002056
:1007100008B500BF1148806940F001000F498861A9
:100720000846806900F00100009000BF00BF00BFD4
:100730000846C06940F08050C8610846C06900F0B2
:100740008050009000BF00BF00BF0549486820F0FE
:10075000E06040F00070486000BF08BD001002403B
:10076000000001402DE9F05F80460D461646002747
:1007700000F03CFC074639462A46334601F00700A4
:10078000C0F1070ABAF1040F02D94FF0040A01E0E0
:10079000C0F1070AD14600F1040ABAF1070F02D2EC
:1007A0004FF0000A01E0A0F1030AD4464FF0010A1D
:1007B0000AFA09FAAAF1010A0AEA020A0AFA0CFA82
:1007C0004FF0010B0BFA0CFBABF1010B0BEA030B27
:1007D0004AEA0B042146404600F010FCBDE8F09FB9
:1007E00000BF00F00702064B19684FF6FF031940DF
:1007F000044B0B4343EA0221014B196000BF7047D1
:100800000CED00E00000FA0570B504460D460CB989
:10081000012070BD5A48006800F00700A8420ED2BF
:100820005748006820F007002843554908600846EB
:10083000006800F00700A84201D00120E9E7207815
:1008400000F0020002281DD1207800F004000428E6
:1008500005D14C48406840F4E0604A49486020783F
:1008600000F00800082805D14648406840F4605070
:10087000444948604348406820F0F000A1680843BC
:1008800040494860207800F0010078B36068012892
:1008900006D13C48006800F4003090B90120B8E768
:1008A0006068022806D13748006800F0007040B93F
:1008B0000120AEE73348006800F0020008B90120CB
:1008C000A7E73048406820F00300616808432D49DD
:1008D0004860FFF7D1FE064609E0FFF7CDFE801B1A
:1008E00041F28831884202D9032092E707E0254887
:1008F000406800F00C006168B0EB810FEDD120483A
:10090000006800F00700A8420ED91D48006820F0DA
:10091000070028431A4908600846006800F00700ED
:10092000A84201D0012074E7207800F004000428D8
:1009300007D11448406820F4E060E1680843114999
:100940004860207800F00800082808D10D48406869
:1009500020F46050216940EAC1000A49486000F073
:1009600019F808494968C1F30311074A515CC840A6
:100970000649086006480068FFF7A4FE002048E723
:100980000020024000100240A610000818000020BD
:100990001000002070B50021002200240023002058
:1009A000134D696801F00C05F5B1042D02D0082D36
:1009B00019D101E00F4819E00F4DC1F38346AB5D3B
:1009C00001F4803555B10A4D6D68C5F340450B4EB5
:1009D000725D084D5D43B5FBF2F402E0084D03FB88
:1009E00005F4204602E000BF024800BF00BF70BD12
:1009F0000010024000127A0094100008A4100008B1
:100A000000093D00F8B504460CB90120F8BD207876
:100A100000F00100002878D0F848406800F00C0091
:100A200004280CD0F548406800F00C00082811D1CB
:100A3000F248406800F48030B0F5803F0AD1EF48BA
:100A4000006800F4003000285FD0606800285CD1A6
:100A50000120DBE700BF6068B0F5803F06D1E748C2
:100A6000006840F48030E549086028E0606858B9C3
:100A7000E248006820F48030E049086008460068D9
:100A800020F4802008601AE06068B0F5A02F0BD138
:100A9000DA48006840F48020D849086008460068B9
:100AA00040F4803008600AE0D448006820F48030C8
:100AB000D24908600846006820F48020086000BF22
:100AC000606888B1FFF7D8FD054606E0FFF7D4FD62
:100AD000401B642801D9032098E7C848006800F447
:100AE00000300028F2D010E0FFF7C6FD054606E012
:100AF000FFF7C2FD401B642801D9032086E7BF48E9
:100B0000006800F400300028F2D1207800F00200E4
:100B1000022857D1B948406800F00C0050B1B748DE
:100B2000406800F00C00082818D1B448406800F470
:100B3000803098B9B148006800F0020020B1206907
:100B4000012801D0012061E7AC48006820F0F800DE
:100B5000616940EAC100A949086033E02069E8B151
:100B60000120A7490860FFF787FD054606E0FFF76B
:100B700083FD401B022801D9032047E79F480068F6
:100B800000F002000028F2D09C48006820F0F80035
:100B9000616940EAC1009949086013E00020984962
:100BA0000860FFF769FD054606E0FFF765FD401B9D
:100BB000022801D9032029E79048006800F00200CC
:100BC0000028F2D1207800F0080008282DD1A06973
:100BD000B8B101208B490860FFF74EFD054606E0DD
:100BE000FFF74AFD401B022801D903200EE7834886
:100BF000406A00F002000028F2D0012000F0A6F9BF
:100C000013E000207F490860FFF736FD054606E047
:100C1000FFF732FD401B022801D90320F6E6774892
:100C2000406A00F002000028F2D1207800F00400B1
:100C3000042873D100277148C06900F0805070B952
:100C400000BF6E48C06940F080506C49C8610846DA
:100C5000C06900F08050009000BF00BF01276A48C3
:100C6000006800F48070B0B96748006840F4807094
:100C700065490860FFF700FD054606E0FFF7FCFC4C
:100C8000401B642801D90320C0E65F48006800F4D7
:100C900080700028F2D000BFE068012806D15748D4
:100CA000006A40F001005549086227E0E06858B941
:100CB0005248006A20F00100504908620846006A64
:100CC00020F00400086219E0E06805280BD14B48C9
:100CD000006A40F00400494908620846006A40F092
:100CE000010008620AE04548006A20F0010043491B
:100CF00008620846006A20F00400086200BFE0684D
:100D0000A0B1FFF7B9FC054609E0FFF7B5FC401BB1
:100D100041F28831884202D9032077E622E0374841
:100D2000006A00F002000028EFD012E0FFF7A4FCF8
:100D3000054608E0FFF7A0FC401B41F288318842DD
:100D400001D9032062E62D48006A00F00200002865
:100D5000F0D1012F05D12948C06920F080502749E2
:100D6000C86100BFE069C8B32448406800F00C00C7
:100D7000082860D0E069022848D100202049086690
:100D8000FFF77AFC054606E0FFF776FC401B0228D9
:100D900001D903203AE61948006800F000700028E5
:100DA000F2D1206AB0F5803F07D11448406820F4A2
:100DB0000030A168084311494860D4E9080108439C
:100DC0000E49496821F4741108430C494860012018
:100DD0000B490866FFF750FC054607E03DE0FFF7CA
:100DE0004BFC401B022801D903200FE60348006892
:100DF00000F000700028F2D02FE000000010024048
:100E00000000424280044242007000400020144929
:100E10000866FFF731FC054606E0FFF72DFC401B96
:100E2000022801D90320F1E50E48006800F00070A7
:100E30000028F2D111E0E069012800D1E6E5094877
:100E4000466806F48031206A814204D106F47011AC
:100E5000606A814201D00120D8E50020D6E500007B
:100E6000000042420010024070B504462546681E4C
:100E7000B0F1807F01D301200FE0681E4FF0E02128
:100E800048610F214FF0FF3000F0B8F800204FF01C
:100E9000E021886107200861002070BD00BFFEE7E7
:100EA00000B585B00020019002900390049000BF2F
:100EB0002048806940F020001E498861084680690A
:100EC00000F02000009000BF00BF00BF084680690E
:100ED00040F0100088610846806900F01000009022
:100EE00000BF00BF00BF0846806940F00400886171
:100EF0000846806900F00400009000BF00BF012296
:100F000040210D48FFF7B2FB08200190002002901D
:100F1000039001A90948FFF7F7F94020019001204B
:100F2000029003900220049001A90348FFF7ECF916
:100F300005B000BD00100240000801400010014053
:100F400000BFFEE700BFFEE77047000008B5084994
:100F50000968C9084FF47A72B1FBF2F1414300917C
:100F600000BF00BF00994A1E00920029F9D108BDB8
:100F700018000020704710B5FFF784FB10BD00B5C6
:100F80008FB0282105A8FFF741F914216846FFF723
:100F90003DF90120059000040690002007900120F3
:100FA000099002200C90C1030D914FF4E0110E91B5
:100FB00005A8FFF727FD08B1FFF78EF90F20009075
:100FC00002200190002002904FF4806003900020E6
:100FD000049002216846FFF717FC08B1FFF77CF97F
:100FE0000FB000BD704700BFFEE700000248006878
:100FF000C0F30220704700000CED00E010B500289F
:1010000004DB0A07130E054A135406E00A07140E00
:10101000034A00F00F031B1FD45410BD00E400E08E
:1010200018ED00E0FFF73AFBFFF7A9FFFFF738FFE5
:101030000A20134908601420124908601E20124932
:1010400008601CE008211148FFF7FEFAB8B90A2031
:10105000FFF746F908210D48FFF7F6FA78B9402165
:101060000B48FFF7F9FA06480068401C044908607D
:1010700000BF08210548FFF7E7FA0028F9D0E1E7AB
:1010800000000020040000200800002000100140A3
:101090000008014002030405060708090A0B0C0DAD
:1010A0000E0F1010010200000000000000000102FD
:1010B0000304060708090000000001020304000001
:1010C000E0100008000000201C0000006C01000877
:1010D000FC1000081C0000206406000088010008C5
:1010E0000000000000000000000000000000000000
:0C10F000100000000100000000127A0057
:0400000508000131BD
:00000001FF
